:100000000C9434000C9451000C9451000C94510049
:100010000C9451000C9451000C9451000C9451001C
:100020000C9451000C9451000C9451000C9451000C
:100030000C9451000C9451000C9451000C945100FC
:100040000C9451000C9451000C9451000C945100EC
:100050000C9451000C9451000C9451000C945100DC
:100060000C9451000C94510011241FBECFEFD8E026
:10007000DEBFCDBF11E0A0E0B1E0E8EFFBE002C0E1
:1000800005900D92A43EB107D9F722E0A4EEB1E0AD
:1000900001C01D92AB3EB207E1F70E9414020C941E
:1000A000FA050C94000088E48093B8000895ECEB06
:1000B000F0E0108294EA908390819923ECF790917C
:1000C000B900987F9830A1F48093BB0084E88093B6
:1000D000BC00ECEBF0E080818823ECF79091B90054
:1000E000987F983139F081E0903429F480E00895C8
:1000F00081E0089580E008958093BB0084E88093B8
:10010000BC00ECEBF0E080818823ECF79091B90023
:10011000987F81E0983209F480E0089584EC809320
:10012000BC00ECEBF0E080818823ECF78091BB0011
:10013000089584E88093BC00ECEBF0E08081882394
:10014000ECF78091BB000895CF92DF92FF920F935E
:100150001F93CF93DF93C62F6A0189010E94570036
:10016000F82E811115C08C2F0E947C0001151105FD
:1001700059F0E6010C0D1D1D89910E947C00811132
:100180000AC0C017D107C1F784E98093BC0005C03D
:10019000FF24F39402C0FF24F3948F2DDF91CF91BD
:1001A0001F910F91FF90DF90CF900895AF92BF9273
:1001B000DF92EF92FF920F931F93CF93DF93182F4D
:1001C000062F5A01E9010E945700811122C0802F99
:1001D0000E947C00812F81600E945700D82E8111DF
:1001E0001BC08E010150110951F0E5017501E00EAF
:1001F000F11E0E948E008993EC16FD06D1F7E501F1
:10020000C00FD11F0E949900888384E98093BC00AD
:1002100005C0DD24D39402C0DD24D3948D2DDF915D
:10022000CF911F910F91FF90EF90DF90BF90AF9013
:1002300008959093C5008093C400E1ECF0E08081C4
:1002400088698083E2ECF0E0808186608083089595
:10025000CF93DF93FC012081222369F0DC0111960A
:10026000E0ECF0E0C6ECD0E0908195FFFDCF288374
:100270002D912111F9CFDF91CF910895EF92FF9247
:100280000F931F93CF93DF937C018B01EA0121E051
:1002900030E046EE52E066E982E70E94D60021E0B7
:1002A00030E045EE52E067E982E70E94D60021E0A7
:1002B00030E047EE52E068E982E70E94D60021E094
:1002C00030E044EE52E069E982E70E94D60021E086
:1002D00030E048EE52E06AE982E70E94D60021E071
:1002E00030E049EE52E06BE982E70E94D60080914F
:1002F000E50290E0982F88272091E602822BF701F3
:10030000918380838091E90290E0982F8827209143
:10031000E802822BF801918380838091E40290E0CF
:10032000982F88272091E702822B99838883DF9179
:10033000CF911F910F91FF90EF90089521E030E051
:100340004AEE52E062E982E70E94D6008091EA021A
:100350008B3A09F0FFCF21E030E04AEE52E060E84E
:1003600082E70E94A4008BED8093EA0221E030E056
:100370004AEE52E061E882E70E94A40086EF809393
:10038000EA0221E030E04AEE52E063E882E70E94B0
:10039000A40087E88093EA0221E030E04AEE52E0D0
:1003A0006EE882E70E94A4001092EA0221E030E0A9
:1003B0004AEE52E06DE982E70E94A4001092EA0240
:1003C00021E030E04AEE52E06EE982E70E94A400AC
:1003D00080E68093EA0221E030E04AEE52E06DE8E8
:1003E00082E70E94A40081E18093EA0221E030E0EC
:1003F0004AEE52E06CE882E70E94A40081E080931C
:10040000EA0221E030E04AEE52E060E982E70E9431
:10041000A4001092EA0221E030E04AEE52E06FE9D7
:1004200082E70E94A4000895CF93DF93CDB7DEB793
:10043000C458D1090FB6F894DEBF0FBECDBF1A82E3
:1004400019821C821B821E821D820E94530087E635
:1004500090E00E9419010E949E0185E0E6E6F1E02D
:10046000DE01179601900D928A95E1F78EE0EBE69A
:10047000F1E0DE011C9601900D928A95E1F780E291
:10048000E9E7F1E0DE015A9601900D928A95E1F7D5
:100490008EE0E9E9F1E0DE01DA9601900D928A95AD
:1004A000E1F78CE2E7EAF1E0DE01A85BBF4F0190E3
:1004B0000D928A95E1F781E1E3EDF1E0DE01AC58C0
:1004C000BF4F01900D928A95E1F72FEF31E18AE756
:1004D000215030408040E1F700C00000CE01079677
:1004E0000E9428019FEF23E234EF80E091502040EA
:1004F00030408040D9F700C00000CE010C960E9429
:1005000028019FEF23E234EF80E0915020403040FB
:100510008040D9F700C00000CE014A960E94280111
:100520009AEA2AE03BE882E0915020403040804047
:10053000D9F700000F2EF0E0EF2EF1E0FF2EF02DA6
:10054000DD24D39404EE11E0CE01CA960E94280166
:100550009AEA26EE36E981E0915020403040804012
:10056000D9F70000CE01885B9F4F0E9428019AEACC
:1005700026EE36E981E09150204030408040D9F7A6
:100580000000CE018C589F4F0E9428019FEF23E26C
:1005900034EF80E09150204030408040D9F700C0D7
:1005A0000000AE014D5F5F4FBE016B5F7F4FCE011C
:1005B00001960E943E018E818F938D818F938C8155
:1005C0008F938B818F938A818F9389818F93FF92F1
:1005D000EF92DF921F921F930F930E940203C801B4
:1005E0000E9428019AEA26EE36E981E091502040E7
:1005F00030408040D9F700000FB6F894DEBF0FBE40
:10060000CDBFA2CFAEE0B0E0E8E0F3E00C94D105BE
:100610000D891E898F89988D26E02C831A83098382
:1006200097FF02C080E090E801979E838D83AE0122
:10063000455E5F4F698D7A8DCE0101960E9432032F
:100640004D815E8157FD0AC02F81388542175307BF
:100650000CF49A01F801E20FF31F10822E96E4E0E9
:100660000C94ED05ABE0B0E0E8E3F3E00C94C305D7
:100670006C017B018A01FC0117821682838181FF54
:10068000CCC1CE0101963C01F6019381F70193FDA7
:10069000859193FF81917F01882309F4BAC1853246
:1006A00039F493FD859193FF81917F01853229F47F
:1006B000B60190E00E942905E7CF912C212C312C26
:1006C000FFE1F315D8F08B3279F038F4803279F00D
:1006D0008332A1F4232D20611DC08D3261F080335F
:1006E00069F4232D216016C0832D8260382EE32DFE
:1006F000E4603E2E2AC0F32DF8601DC037FC2DC0EB
:1007000020ED280F2A3040F08E32B9F436FC81C13A
:10071000232D2064322E19C036FE06C08AE0989E32
:10072000200D1124922E11C0EAE02E9E200D1124DE
:10073000222EF32DF0623F2E08C08C3621F4832D3B
:100740008068382E02C0883641F4F70193FD859108
:1007500093FF81917F018111B3CF982F9F7D955495
:10076000933028F40C5F1F4F9FE399830DC08336AD
:1007700031F0833771F0833509F059C021C0F80199
:10078000808189830E5F1F4F88248394912C5301AD
:1007900013C02801F2E04F0E511CF801A080B18077
:1007A00036FE03C0692D70E002C06FEF7FEFC50118
:1007B0000E941E054C018201F32DFF773F2E16C0CB
:1007C000280122E0420E511CF801A080B18036FEC3
:1007D00003C0692D70E002C06FEF7FEFC5010E947A
:1007E00013054C01F32DF0683F2E820133FC1BC032
:1007F000822D90E088169906B0F4B60180E290E070
:100800000E9429052A94F4CFF50137FC859137FE23
:1008100081915F01B60190E00E94290521102A9480
:1008200021E0821A91088114910471F7E8C084369E
:1008300011F0893641F5F80137FE07C060817181FA
:10084000828193810C5F1F4F08C060817181072EE8
:10085000000C880B990B0E5F1F4FF32DFF763F2E78
:1008600097FF09C090958095709561957F4F8F4F48
:100870009F4FF0683F2E2AE030E0A3010E946505FB
:10088000882E861845C0853731F4232D2F7EB22E51
:100890002AE030E025C0932D997FB92E8F36C1F024
:1008A00018F4883579F0B5C0803719F0883721F011
:1008B000B0C0E92FE061BE2EB4FE0DC0FB2DF46088
:1008C000BF2E09C034FE0AC0292F2660B22E06C0F2
:1008D00028E030E005C020E130E002C020E132E055
:1008E000F801B7FE07C060817181828193810C5F3E
:1008F0001F4F06C06081718180E090E00E5F1F4F46
:10090000A3010E946505882E8618FB2DFF773F2ED8
:1009100036FE0DC0232D2E7FA22E891458F434FEEE
:100920000BC032FC09C0832D8E7EA82E05C0B82CCA
:10093000A32C03C0B82C01C0B92CA4FE0FC0FE012B
:10094000E80DF11D8081803321F49A2D997EA92E26
:1009500009C0A2FE06C0B394B39404C08A2D867861
:1009600009F0B394A3FC11C0A0FE06C0B21488F431
:10097000280C922C9B180EC0B21460F4B60180E2D1
:1009800090E00E942905B394F7CFB21418F42B1805
:1009900002C0982C212CA4FE10C0B60180E390E088
:1009A0000E942905A2FE17C0A1FC03C088E790E0C1
:1009B00002C088E590E0B6010CC08A2D867859F017
:1009C000A1FE02C08BE201C080E2A7FC8DE2B6016D
:1009D00090E00E942905891438F4B60180E390E084
:1009E0000E9429059A94F7CF8A94F301E80DF11D2E
:1009F0008081B60190E00E9429058110F5CF222068
:100A000009F442CEB60180E290E00E9429052A94C2
:100A1000F6CFF6018681978102C08FEF9FEF2B966C
:100A2000E2E10C94DF05FC0105906150704001107B
:100A3000D8F7809590958E0F9F1F0895FC01615007
:100A4000704001900110D8F7809590958E0F9F1FF0
:100A500008950F931F93CF93DF93FB01238121FD13
:100A600003C08FEF9FEF2CC022FF16C04681578135
:100A7000248135814217530744F4A081B1819D013F
:100A80002F5F3F4F318320838C93268137812F5FE7
:100A90003F4F3783268314C08B01EC01FB01008498
:100AA000F185E02D0995892BE1F6D80116968D91F7
:100AB0009C911797019617969C938E931697CE014B
:100AC000DF91CF911F910F910895FA01AA27283045
:100AD00051F1203181F1E8946F936E7F6E5F7F4F0B
:100AE0008F4F9F4FAF4FB1E03ED0B4E03CD0670F87
:100AF000781F891F9A1FA11D680F791F8A1F911DDA
:100B0000A11D6A0F711D811D911DA11D20D009F429
:100B100068943F912AE0269F11243019305D31936B
:100B2000DEF6CF010895462F4770405D4193B3E054
:100B30000FD0C9F7F6CF462F4F70405D4A3318F0FB
:100B4000495D31FD4052419302D0A9F7EACFB4E0AC
:100B5000A6959795879577956795BA95C9F7009764
:100B60006105710508959B01AC010A2E0694579505
:100B7000479537952795BA95C9F7620F731F841F5C
:100B8000951FA01D08952F923F924F925F926F92F2
:100B90007F928F929F92AF92BF92CF92DF92EF920D
:100BA000FF920F931F93CF93DF93CDB7DEB7CA1B8E
:100BB000DB0B0FB6F894DEBF0FBECDBF09942A88B9
:100BC000398848885F846E847D848C849B84AA8461
:100BD000B984C884DF80EE80FD800C811B81AA81EE
:100BE000B981CE0FD11D0FB6F894DEBF0FBECDBFB9
:080BF000ED010895F894FFCF18
:100BF8004745542068747470733A2F2F6170692EBA
:100C08007468696E67737065616B2E636F6D2F759D
:100C180070646174653F6170695F6B65793D3548E3
:100C28004943494647594A5131585555393026663E
:100C380069656C64313D3025303575266669656CAB
:100C480064323D25303575266669656C64333D250B
:100C58003035750D0A0041540D0A0041542B435795
:100C68004D4F44453D310D0A0041542B43574A41ED
:100C7800503D22695058534D6178222C223132332D
:100C88003435363738220D0A0041542B4349504D2C
:100C980055583D300D0A0041542B43495053544197
:100CA80052543D22544350222C226170692E74689C
:100CB800696E67737065616B2E636F6D222C3830B7
:100CC8000D0A0041542B43495053454E443D3130A1
:040CD800300D0A00D1
:00000001FF
